:1000000033C0000039C0000037C0000035C0000018
:1000100033C0000031C000002FC000002DC0000020
:100020002BC0000029C0000027C0000025C0000030
:1000300023C0000021C000001FC000001DC0000040
:100040001BC0000019C0000017C0000015C0000050
:1000500013C0000011C000000FC000000DC0000060
:100060000BC0000009C0000011241FBECFEFD8E074
:10007000DEBFCDBF02D0B3C0C3CFCF93DF930F920B
:10008000CDB7DEB7CE0101960AD061E0CE01019670
:1000900016D080E090E00F90DF91CF910895CF933C
:1000A000DF9300D0CDB7DEB79A83898389819A81A7
:1000B00018D000000F900F90DF91CF910895CF934B
:1000C000DF9300D00F92CDB7DEB79A8389836B831D
:1000D0008B8115D000000F900F900F90DF91CF9182
:1000E0000895CF93DF9300D0CDB7DEB79A8389838D
:1000F00030D000000F900F90DF91CF9108950F93B3
:100100001F93CF93DF9300D0CDB7DEB78A832BD078
:10011000FC018081898389818F7D89838A81882FF1
:1001200090E0182F169516951695082F0295000F3A
:10013000007E902F8981892B8983198114D0FC013D
:10014000108300000F900F90DF91CF911F910F91BE
:100150000895CF93DF93CDB7DEB781E00DD00000D7
:10016000DF91CF910895CF93DF93CDB7DEB785E2CE
:1001700090E0DF91CF9108950F931F93CF93DF937A
:1001800000D0CDB7DEB78A8321D0FC01808189837E
:1001900089818F7D89838A81882F90E0182F169519
:1001A00016951695082F0295000F007E902F8981D5
:1001B000892B898319810AD0FC01108300000F90DC
:1001C0000F90DF91CF911F910F910895CF93DF93FF
:1001D000CDB7DEB784E290E0DF91CF910895F89437
:0201E000FFCF4F
:00000001FF
